:100000000C9493050C94DA050C94DA050C94DA053B
:100010000C94DA050C94DA050C94DA050C94DA05E4
:100020000C94DA050C94DA050C94D3200C94A621D8
:100030000C94E0170C94DA050C94DA050C94DA05AC
:100040000C94DA050C94DA050C94DA050C94DA05B4
:100050000C94DA050C9441180C94DA050C94DA052A
:100060000C94DA050C94DA050C94DA050C94DA0594
:100070000C94DA050C94DA050C94DA050C94DA0584
:100080000C94DA050C94DA050C94DA050C94DA0574
:100090000C94DA050C94DA050C94DA050C94DA0564
:1000A0000C94DA050C94DA050C94DA0501E10134BC
:1000B000023402E1011C021C0001E101350235029B
:1000C000E1011102110001340234010602060001AF
:1000D000E10123022302E10104020400013502359B
:1000E000010402040001E10123022302E1011202E2
:1000F000120001E10134023402E1010C020C0001A2
:10010000E10123022302E1010C020C0001E10134B0
:10011000023402E1011802180001E1012302230266
:10012000E1011802180001E10134023402E1010882
:1001300002080001E10123022302E1010802080094
:1001400001E60108020802E60001E0013E023E026B
:10015000E00001E2013D023D02E20031001E001F0D
:100160000020002100220023002400250026002773
:10017000002F0030002E0014001A00080015001790
:10018000002A001C0018000C001200130035002D7E
:100190000004001600070009000A0028000B000DEB
:1001A000000E000F0033003400E1001D001B0006AC
:1001B0000019000500520011001000360037003809
:1001C00000E100E000E2002B0001512C0050005142
:1001D000004F002C000251E30029004C0001303A8E
:1001E000003B003C003D003E003F0040004100421B
:1001F00000430044004500010001000100033001FC
:1002000000010046000E30053007300930010001C2
:100210000001000B30010001000100010047000156
:10022000000100010001000100010039000100018E
:10023000000C30010001004B000D300100010001F5
:100240000001003900E400E600010001002C004A32
:10025000004E004D00480003516500003049000188
:1002600030680069006A006B006C006D006E006F02
:1002700000700071007200730001000100010004B1
:100280003001000100010001000630083009300192
:1002900000010001000B300100010001000100A875
:1002A000000100010001000100010001003900010E
:1002B0000001000C3001000100A900010001000153
:1002C0000001000100390001000100010003512C70
:1002D00000AC00AA00AB00AE00010001000100016B
:1002E0000001000100010001000100010001000106
:1002F00000010001000100010001000100010001F6
:1003000000023001000100010001000100010001B4
:1003100000010001000100010001000100010001D5
:1003200000010001000100010001000100010001C5
:1003300000010001000100010001000100010001B5
:1003400000010001000100010001000100010001A5
:10035000000100010001000100010001000100A6F0
:100360000001000100010001000100010001000185
:100370000001000100010001000100010001000175
:100380000001000100010001000100010001000165
:100390000001000100010001000100010001000155
:10097000000100010001000100010012036B00658D
:1009800000790062006F00610072006400000016D0
:100990000371006D006B006200750069006C0064FB
:1009A000006500720000000403090409026D0004E0
:1009B0000100A0FA0904000001030101000921114E
:1009C0000100012240000705810308000A09040113
:1009D000000103010200092111010001224D00075D
:1009E00005820308000A090402000103000000094F
:1009F00021110100012236000705830308000A09BE
:100A00000403000103000000092111010001223943
:100A100000070584032000011201100100000008F6
:100A2000EDFE606001000102000105010906A1015F
:100A3000050719E029E715002501950875018102D0
:100A400005081901290595057501910295017503A0
:100A500091010507190029F71500250195F8750181
:100A60008102C005010980A101850216010026034B
:100A7000001A81002A8300751095018100C0050CC1
:100A80000901A1018503160100269C021A01002A12
:100A90009C02751095018100C005010902A10109A0
:100AA00001A1000509190129051500250195057504
:100AB0000181029501750381010501093009311594
:100AC00081257F95027508810609381581257F9556
:100AD0000175088106050C0A38021581257F9501EC
:100AE00075088106C0C005010906A101050719E0C6
:100AF00029E7150025019508750181029501750802
:100B000081010508190129059505750191029501D5
:100B1000750391010507190029FF150026FF0095AF
:100B20000675088100C011241FBECFEFDAE0DEBFDA
:100B3000CDBF04B603FE27C08091470290914802C2
:100B4000A0914902B0914A028730904BA740B04B28
:100B5000D1F410924702109248021092490210926A
:100B60004A0214BE84B7877F84BF0FB6F894A89555
:100B700080916000886180936000109260000FBED9
:100B8000E0E0FFE3099511E0A0E0B1E0E4E4FAE47D
:100B900002C005900D92AA33B107D9F722E0AAE36B
:100BA000B1E001C01D92A734B207E1F70E94291EEF
:100BB0000C94E5240C940000DC016F3008F056C062
:100BC000E62FF0E0E951FB4D12968C910C949524A0
:100BD000882309F44BC082E591E00895882309F445
:100BE00045C089E491E00895882309F43FC080E47A
:100BF00091E008958823D1F183E391E0089588235B
:100C0000A9F186E291E00895882381F189E191E0DC
:100C10000895882359F18CE091E00895882331F1FB
:100C20008FEF90E00895882309F182EF90E0089516
:100C30008823E1F085EE90E008958823B9F08CEDEB
:100C400090E00895882391F08FEC90E00895882338
:100C500069F086EC90E00895882341F089EB90E0FC
:100C60000895882319F08CEA90E0089590E080E0E0
:100C700008950895089581E0089581FF07C0819A3D
:100C8000899882FF05C03F9A479808958198F8CFC8
:100C90003F98FACF81E008950C943B060E943110F2
:100CA0002FEF84E39CE0215080409040E1F700C0AA
:100CB00000000C946418EF92FF920F931F93CF9350
:100CC000DF938C01FC01E080F1808091740181113F
:100CD00040C082818823C1F1C7010E94B615C82F88
:100CE000682FC7010E945F15B7018C2F0E949307E0
:100CF000EC01B8010E944C06882309F44BC0B801EE
:100D0000CE010E949C09882309F444C0C531F0E754
:100D1000DF0720F5C23080E7D80708F04DC0C115C5
:100D2000E0E7DE0791F1C130D047E1F181E0809347
:100D30003C0180933D01C801DF91CF911F910F913C
:100D4000FF90EF900C944A06C7010E948D15C82FA2
:100D5000CBCFC7010E94B615B701C8CFCC3380E70F
:100D6000D80709F49BC0CD33D04701F7F801828141
:100D7000882309F4BAC010923D010E941018909384
:100D80003B0180933A0180E296C0F8018281811193
:100D90000E944E0680E0DF91CF911F910F91FF904E
:100DA000EF900895F80182818823A1F380910702D2
:100DB000816080930702EECFF8018281882309F4D5
:100DC000BACF0E947117811102C00E9457170E946A
:100DD0008E1790E09093390280933802FE01E35021
:100DE000F047809138028160E231F10538F4EA5031
:100DF000FB4D0C94952480913802826080933802D8
:100E0000809138020E9492170E943110C3CF8091C6
:100E100038028460F3CF809138028860EFCF8091F0
:100E200038028061EBCF809138028062E7CF8091F9
:100E300038028064E3CF809138028068DFCF8091F0
:100E400038028C60DBCF809138028E7FD7CF8091C3
:100E500038028D7FD3CF809138028B7FCFCF8091A6
:100E60003802877FCBCF809138028F7EC7CF8091A9
:100E700038028F7DC3CF809138028F7BBFCF8091A6
:100E800038028F77BBCF80913802837FB7CF9091A4
:100E90003802892F97FB87F98058B0CFF8018281FB
:100EA000882361F010923C010E94101890933B013E
:100EB00080933A0182E00E94960D6CCF80913C01B4
:100EC00081110FC080913A0190913B010E941C1842
:100ED000883C910530F486E20E946B0C86E20E9409
:100EE000470D82E00E949D0D55CF80913D018111FB
:100EF0000FC080913A0190913B010E941C18883CE0
:100F0000910530F487E20E946B0C87E20E94470D46
:100F100080E2E8CF0C94EB090C94ED090C943D06AB
:100F20000C948E070895972F70E02DE0929F600D2E
:100F3000711D1124FB0191E4899FE00DF11D112425
:100F4000EE0FFF1FE55AFE4F859194910895FC0125
:100F5000EE0FFF1FE558F64F8591949108950E947A
:100F600093070E9420099C01811540E4940708F032
:100F700097C0211580E3380708F0FAC0203E3105FC
:100F800008F074C0203C310508F0E5C0283A31056E
:100F900088F4253A310508F0E2C02130310509F422
:100FA00077C0C9010497813A910508F471C030E017
:100FB00020E06EC0C901885A91094597C0F7283AC8
:100FC000310509F4FEC0293A310509F4FDC02A3A79
:100FD000310509F4FCC02B3A310509F4FBC02C3A69
:100FE000310509F4FAC02B3B310509F4F9C02C3B5B
:100FF000310509F4F8C02D3A310509F4F7C0203B5A
:10100000310509F4F6C02E3A310509F4F5C02F3A3E
:10101000310509F4F4C0213B310509F4F3C0223B4A
:10102000310509F4F2C0233B310509F4F1C0243B3A
:10103000310509F4F0C0253B310509F4EFC0263B2A
:10104000310509F4EEC0273B310509F4EDC0283B1A
:10105000310509F4ECC0293B310509F4EBC02A3B0A
:10106000310509F4EAC020E034E412C0211590E211
:10107000390780F42F3F310509F050F4283E31053F
:1010800038F0C901805F91093065409708F08FCF33
:10109000C9010895C9019F700E94A7079C01F8CF5C
:1010A0008115944508F041C0211583E5380708F003
:1010B0006AC0211592E5390738F5211541E5340755
:1010C00008F05CC0211580E5380708F454C0C90158
:1010D00034E0969587953A95E1F78370422F4695CF
:1010E0004695437090E2499FA0011124582B822F0E
:1010F000837021E030E002C0220F331F8A95E2F7AF
:10110000242B352B3C68C4CFC9018370992741E05B
:1011100050E002C0440F551F8A95E2F726952695A8
:1011200080E2289F90011124EBCF211596E5390725
:1011300048F4922F882721153545C8F59C01246F66
:10114000306AA6CFC90190563F708115904108F0D2
:101150002ECF30629DCFC901805C91099DCF253A89
:10116000310549F1263A310549F522E830E490CFBE
:101170003327306C8DCF3F70306A8ACF322F2227D1
:10118000216F306A85CFC9018370992741E050E013
:1011900002C0440F551F8A95E2F72695269580E2F6
:1011A000289F90011124242B352B3A6871CF882772
:1011B0009F719C01CECF21E830E46ACF23E830E470
:1011C00067CF22EE34E464CF29EE34E461CF2AEE17
:1011D00034E45ECF25EB34E45BCF26EB34E458CF28
:1011E00023EB34E455CF24EB34E452CF27EB34E443
:1011F0004FCF2CEC34E44CCF2DEC34E449CF23E832
:1012000035E446CF2AE835E443CF22E935E440CF40
:1012100024E935E43DCF21E236E43ACF23E236E457
:1012200037CF24E236E434CF25E236E431CF26E26C
:1012300036E42ECF27E236E42BCF2AE236E428CF5D
:10124000803E910581F1C8F48133910509F462C0B3
:1012500048F48932910509F456C08A32910509F49F
:1012600060C0089589339105B9F082389105A1F0E5
:101270008533910509F440C00895863E910561F1DA
:1012800038F4823E9105B1F0833E9105E1F0089576
:10129000873E910551F10895209138022370D9F0CD
:1012A00080EE90E008952091380220FF14C089E379
:1012B00090E008952091380222FF0DC024FD09C05E
:1012C00083EE90E008952091380222FD31C024FF82
:1012D00002C090E080E008952091380223FFFBCF08
:1012E00024FDF7CF87EE90E008952091380223FF88
:1012F000EECF86EE90E008952091380225FFEBCFE7
:1013000089E290E008952091380225FFE4CF85E33B
:1013100090E008952091380226FFDDCF8AE290E028
:1013200008952091380226FFD6CF81E390E00895FA
:1013300082EE90E0089508950F931F93CF938C0150
:10134000FB018281811106C0C1E08C2FCF911F91DA
:101350000F910895C0914B01C11125C0053110476F
:1013600099F70E949B0981E080934B010E9410181D
:1013700090934A018093490110923E0110924001DE
:1013800010923F01109242011092410110924401CB
:1013900010924301109246011092450110924801AB
:1013A00010924701D2CF8091490190914A010E9449
:1013B0001C18883C910540F680913E01E82FF0E032
:1013C000EE0FFF1FE15CFE4F118300838F5F809360
:1013D0003E01C0E0BACF0C9439060C943A06CF9384
:1013E000DF9385B7806885BF85B7806885BFA0E239
:1013F000B1E045E251E0C1E0D0E08D91E82FE29507
:10140000EF70F0E061A18F709E0101C0220F8A95FC
:10141000EAF7922F9095962391A382A1822B82A323
:101420004A175B0751F7A3E1B1E061E070E08D91ED
:10143000E82FE295EF70F0E041A18F709B0101C0B1
:10144000220F8A95EAF7922F9095942391A382A177
:10145000822B82A381E0A032B80749F7109257018E
:101460001092560110924D0110924C0110925901A8
:101470001092580110924F0110924E0110925B0190
:1014800010925A01109251011092500110925D0178
:1014900010925C01109253011092520110925F0160
:1014A00010925E011092550110925401DF91CF917C
:1014B0000C948A074F925F927F928F929F92AF9285
:1014C000BF92CF92DF92EF92FF920F931F93CF9331
:1014D000DF939CE4492E91E0592E20E2E22E21E098
:1014E000F22E01E010E099249394E201A990B990C2
:1014F0002E01DE011E921E92F70181917F01E82FDD
:10150000E295EF70F0E091A18F70980101C0220F79
:101510008A95EAF7892F822B81A382A1822E80945B
:10152000882182A380EA8A95F1F783E1C82E81E0C1
:10153000D82E90E080E0E60179916E01472F429528
:101540004F7050E0EA0178A04D915C9111977F7047
:10155000E80102C0CC0FDD1F7A95E2F7BE016721DA
:1015600009F072C0B801082E02C0660F771F0A94F6
:10157000E2F7462B572B11965C934E9301968D30D4
:101580009105C9F681A1882281A282A1282B22A3DC
:101590008D919C91A816B90641F0909260010E942D
:1015A00010189093620180936101D6E54D16D1E049
:1015B0005D0609F09ACF80916001882391F18091B6
:1015C0006101909162010E941C18069750F1809170
:1015D0004C0190914D019093570180935601809159
:1015E0004E0190914F019093590180935801809141
:1015F00050019091510190935B0180935A01809129
:1016000052019091530190935D0180935C01809110
:1016100054019091550190935F0180935E01109267
:1016200060010E948C0781E0DF91CF911F910F91A3
:10163000FF90EF90DF90CF90BF90AF909F908F90F2
:101640007F905F904F90089570E060E092CFE82F18
:10165000F0E0EE0FFF1FEA5AFE4F8081918108955E
:10166000089590936801809367010895E091670160
:10167000F0916801309721F00190F081E02D0994FC
:1016800080E00895E0916701F0916801309721F0C2
:101690000280F381E02D09940895E0916701F091B3
:1016A0006801309721F00480F581E02D09940895B8
:1016B00020916501309166012817390771F09093E8
:1016C000660180936501E0916701F09168013097B0
:1016D00021F00680F781E02D09940895209163019F
:1016E000309164012817390771F090936401809359
:1016F0006301E0916701F0916801309721F0008467
:10170000F185E02D0994089508950C94840B0E94AE
:1017100007180E94EF090C94D1185F926F927F9284
:101720008F929F92AF92BF92CF92DF92EF92FF92F1
:101730000F931F93CF93DF9300D000D00F92CDB7BC
:10174000DEB70E945A0A9AE6A92E91E0B92E10E05F
:1017500000E088248394912C502E802F0E94270B28
:101760007C01F501C190D1905F01C816D90609F43A
:101770005DC08091070281FD0E94300B90E080E007
:10178000CE24DF243401082E02C0660C771C0A9494
:10179000E2F7960126213721232B09F442C08983E1
:1017A0005A82E620F72081E0EF2809F480E08B835D
:1017B0000E9410188160782F9D838C8349815A8103
:1017C0006B818D810E94420C000F111FF801E659B8
:1017D000FE4F8081918168267926718260820E9405
:1017E0007E1B0E94360B909169018917B1F10E940E
:1017F000360B809369010F900F900F900F900F9010
:10180000DF91CF911F910F91FF90EF90DF90CF90DC
:10181000BF90AF909F908F907F906F905F900C944F
:10182000900701968D30910509F0ACCF0F5F1F4FE7
:101830000530110509F090CF8FEF89838A831B82D1
:101840000E9410188160782F9D838C8349815A8172
:101850006B818D810E94420CC2CF0F900F900F9030
:101860000F900F90DF91CF911F910F91FF90EF900C
:10187000DF90CF90BF90AF909F908F907F906F90B0
:101880005F900895CF93DF93CDB7DEB72B970FB658
:10189000F894DEBF0FBECDBF4F83588769877A8724
:1018A0008B871E8285E0FE013796DE01119601903E
:1018B0000D928A95E1F749815A816B817C818D81F6
:1018C0009E812B960FB6F894DEBF0FBECDBFDF9181
:1018D000CF910C94B912882309F4D8C0823871F4DE
:1018E0000E94360B81FDD2C089E30E945E160E94E1
:1018F000281789E30E949B160C942817833859F403
:101900000E94360B80FDC2C083E50E945E160E94D5
:10191000281783E5EFCF843859F40E94360B82FDF7
:10192000B5C087E40E945E160E94281787E4E2CFC4
:101930009CEF980F913A18F40E945E16DDCF90E26A
:10194000980F983050F4877091E001C0990F8A95F4
:10195000EAF7892F0E94DF16CFCF9BE5980F9330CF
:1019600070F4853A31F0863A39F083E890E00C94CF
:10197000580B81E890E0FBCF82E890E0F8CF98E543
:10198000980F953108F082C0883A09F440C0893A2E
:1019900009F440C08A3A09F440C08B3A09F440C0C7
:1019A0008C3A09F440C08B3B09F440C08C3B09F4ED
:1019B00040C08D3A09F440C0803B09F440C08E3AE3
:1019C00009F440C08F3A09F440C0813B09F440C09B
:1019D000823B09F440C0833B09F440C0843B09F4D6
:1019E00040C0853B09F440C0863B09F440C0873BBA
:1019F00009F440C0883B09F440C0893B09F440C069
:101A00008A3B09F440C090E080E00C946E0B82EEBB
:101A100090E0FBCF89EE90E0F8CF8AEE90E0F5CF32
:101A200085EB90E0F2CF86EB90E0EFCF83EB90E098
:101A3000ECCF84EB90E0E9CF87EB90E0E6CF8CEC45
:101A400090E0E3CF8DEC90E0E0CF83E891E0DDCF54
:101A50008AE891E0DACF82E991E0D7CF84E991E09A
:101A6000D4CF81E292E0D1CF83E292E0CECF84E284
:101A700092E0CBCF85E292E0C8CF86E292E0C5CF7C
:101A800087E292E0C2CF8AE292E0BFCF0895882336
:101A900009F44BC0823871F40E94360B81FF45C0B7
:101AA00089E30E945E160E94281789E30E949B1614
:101AB0000C942817833859F40E94360B80FF35C0E8
:101AC00083E50E945E160E94281783E5EFCF8438D5
:101AD00059F40E94360B82FF28C087E40E945E16EC
:101AE0000E94281787E4E2CF9CEF980F913AF0F21A
:101AF00090E2980F983050F4877091E001C0990FF0
:101B00008A95EAF7892F0E94E516D2CF9BE5980FB8
:101B1000933020F490E080E00C94580B885A853183
:101B200020F490E080E00C946E0B0895882321F05F
:101B30000E94DF160C9428170895882321F00E9434
:101B4000E5160C94281708958F929F92AF92BF923A
:101B5000DF92EF92FF920F931F93CF93DF9300D00A
:101B600000D00F92CDB7DEB77C016D837983FC0185
:101B7000058102950F70128111110E94FE160E94BC
:101B80005716D82E882371F01123A1F08D81805E25
:101B9000883080F082E00E9441160E94571691E042
:101BA000D82ED926E981E295EF70F0E0E85FFA4D92
:101BB0000C949524D12CF6CF09810F70F981F07F18
:101BC00011F00295007F1123B1F0002361F08D81A7
:101BD000805E883018F02D81211109C0802F0E946D
:101BE000DF160E9428178D810E946B0C15C0802F74
:101BF0000E94F016F6CF8D810E94470D002361F000
:101C00008D81805E883018F03D81311129C0802F90
:101C10000E94E5160E942817DD2009F4D3C10E9416
:101C2000341680FDCFC1F70112820E942E160E9449
:101C30007714C7010E94F30F0E942E160F900F9089
:101C40000F900F900F90DF91CF911F910F91FF9008
:101C5000EF90DF90BF90AF909F908F900C9499146D
:101C6000802F0E94F616D6CF49814F70B42E59812D
:101C7000507F503219F0B29480EFB8228D818823C2
:101C800069F0813029F1112369F1002359F0F7013E
:101C9000858180FFA8CF8F70858304C0112361F0F8
:101CA000011104C08B2D0E94960DB6CF8B2D0130F3
:101CB000D1F70E941217B0CF011106C00E9415176C
:101CC0008B2D0E949D0DA8CF013009F4A5CFF6CF32
:101CD000112321F0063008F09FCFE4CF053008F043
:101CE0009BCFEECF002361F38D810E94470D94CFEF
:101CF000898186958695837069F0813009F08CCF53
:101D00008D8199819370111102C090E080E00E9452
:101D10006E0B82CF8D8199819370111102C090E07A
:101D200080E00E94580B78CF8D81112329F00E940A
:101D30008C1A0E94731B70CF0E94F41AFACF89810B
:101D4000837009F05FC0111167CF2D812295269510
:101D50002770220F220F8D818F7090E0B0E0A0E0FD
:101D60004C015D01022E04C0880C991CAA1CBB1CEE
:101D70000A94D2F7FD8160E070E0CB01F4FF0FC060
:101D80006FE070E080E090E004C0660F771F881F6E
:101D9000991F2A95D2F76095709580959095298125
:101DA0002695269523702D832230B1F0233019F12A
:101DB0009B01AC01282939294A295B2929833A83C7
:101DC0004B835C833D8169817A818B819C81313039
:101DD000B1F00E94041420CF9B01AC0128293929BD
:101DE0004A295B2929833A834B835C83CA01B90161
:101DF0000E942E1411CF0E940414C501B4010E9448
:101E0000DA130ACF8695112311F089818170882316
:101E100009F402CF2D81229526952770220F220FDB
:101E20008D818F7090E0B0E0A0E04C015D01022E4A
:101E300004C0880C991CAA1CBB1C0A94D2F73D81D3
:101E400060E070E0CB0134FF0FC06FE070E080E035
:101E500090E004C0660F771F881F991F2A95D2F75C
:101E6000609570958095909549814695469543700B
:101E70004D834230B1F0433019F19B01AC01282968
:101E800039294A295B2929833A834B835C833D8125
:101E900069817A818B819C813130B1F00E940A1571
:101EA000BBCE9B01AC01282939294A295B2929830A
:101EB0003A834B835C83CA01B9010E943415ACCECE
:101EC0000E940A15C501B4010E94E014A5CE3D810F
:101ED000323F09F447C080F4303F79F1313FD9F106
:101EE000832F805E8031D0F0112309F456C0011198
:101EF0007ACE89818F7133C04D81433FD1F1443F08
:101F000099F7112309F43FC089818F7189830E9459
:101F1000771463E089810E9438167ECE5D815F7000
:101F20005D8389818F71112321F00E9477148D8147
:101F3000BACE0E9499148D81C4CE112341F0053090
:101F400008F06ACE89818F710E94BE1465CE06307A
:101F500008F062CEF7CF89818F71112339F00E948A
:101F600077145ACE89818F711123C9F30E94991475
:101F700053CE112329F089818F710E9462144CCEB7
:101F80000E94581449CE81E00E944116023008F4A4
:101F900043CE82E00E9441163FCE0111A5CE898139
:101FA0008F71E4CF49814F706D81C7010E94DC05BC
:101FB0000E94531331CE49814F706D81C7010E9439
:101FC00092072ACE0F900F900F900F900F90DF91F5
:101FD000CF911F910F91FF90EF90DF90BF90AF9046
:101FE0009F908F9008950F931F93CF93DF93EC01F1
:101FF0008B819C81892B29F08881998189238F3F4E
:1020000029F4DF91CF911F910F910895CE010E9485
:102010005B068823B1F3688179818A810E94041666
:102020008C010E945E150E94CF13B801CE01DF9192
:10203000CF911F910F910C94A40D0E94FE160E9447
:102040000F170E94D1160E9428170E94641C0E943C
:10205000731B90E080E00E94580B90E080E00C94AD
:102060006E0B0E94ED160C941D100E94F815282F7F
:10207000892F82958F70903C80F48A30B0F4843040
:1020800020F4823090F480E008958630E1F781E01A
:10209000203E88F0213FB9F70EC08C3011F08F3010
:1020A00091F793FB882780F9089581E0203F39F06C
:1020B00018F4203E40F70895243F29F7FCCF0895F7
:1020C000CF93DF9300D000D00F92CDB7DEB70F9043
:1020D0000F900F900F900F90DF91CF910895CF93B5
:1020E000DF9300D000D000D0CDB7DEB726960FB674
:1020F000F894DEBF0FBECDBFDF91CF9108951F933F
:10210000CF93DF93E091750116E0809176018E13F5
:1021100004C0DF91CF911F910895CE2FD0E01E9F74
:10212000F0011124E958FE4F408151816281738191
:10213000848195810E946F10FE013196E770E5CF92
:102140004091A7015091A8016091A9017091AA0145
:102150008091AB019091AC010C946F101F93CF93C1
:10216000DF938091AC01807FC1F48091A901882325
:10217000A1F080917501C09176016091A7017091E5
:10218000A8014091AA015091AB01D62FD723DA01C3
:10219000A095B09516E0C81304C0DF91CF911F91B0
:1021A000089590E04115510511F0DF3F31F401969B
:1021B0008770F1CF2A0F3B1F17C0189FF001199F9E
:1021C000F00D1124E958FE4F21812713F0CF208113
:1021D0002613EDCF22812111EACF238134812417E8
:1021E000350740F3241B350B283C310500F72091BF
:1021F000AC012F7020612093AC0126E0289FF001F4
:10220000299FF00D1124E458FE4F80818F7080616A
:10221000808387EA91E00E94F30FDF91CF911F91B5
:102220000C947F109F92AF92BF92CF92DF92EF9269
:10223000FF920F931F93CF93DF93CDB7DEB72B970A
:102240000FB6F894DEBF0FBECDBF8C0185E0F8015C
:10225000DE01179601900D928A95E1F7D8014C9115
:1022600011965C9111971296EC9012978091AA01A9
:102270009091AB01009709F46BC12091A7013091B7
:10228000A801632F62236F3F09F462C11396CD90BA
:10229000DC909090A901992009F4F8C0C816D906DD
:1022A00008F43FC0F601E81BF90BCF01FF24F394BB
:1022B000883C910508F0F12C87EAA82E81E0B82E21
:1022C0008091AC01982F907FFF2009F4B7C0911145
:1022D00080C0FE2C35132AC0241328C0E11026C06C
:1022E0008F7080618093AC010E94A010C5010E9494
:1022F000F30F8091AC01D80115968C938F2D2B96FE
:102300000FB6F894DEBF0FBECDBFDF91CF911F9106
:102310000F91FF90EF90DF90CF90BF90AF909F9084
:102320000895809590958C0D9D1DC0CFCD2829F0E6
:10233000842F85238F3F09F019C180E0B82FB17039
:10234000DB2EE09175012091760136E080FD1CC006
:10235000EE20A1F28091AC0181608093AC01F12C60
:10236000CDCF8E2F90E03E9FF0011124E958FE4F13
:102370006181651306C06081641303C062816E11C0
:10238000E7CFFC013196E770E213EBCF4F8358871C
:102390008F8198850E94F815292F22952F709032F1
:1023A00060F0225F2F70223078F49F7051F0F801B6
:1023B0009581907F31F4D12C0AC09F7011F0882351
:1023C000D1F3805E8830B8F3C8010E94F30FFD2C72
:1023D00095CF351306C0241304C0D801EE2009F4AC
:1023E0007BC04F8358878F8198850E943510882342
:1023F00009F4B8C0EE2009F4B5C08091AC01803278
:1024000070F02091A7013091A8013A8329831B82A3
:10241000DD82CC828E83CE0101960E94F30F86E08E
:10242000F801A7EAB1E001900D928A95E1F70E94C8
:10243000AE100E94A010FF24F39460CF911113C03E
:102440007C2DDB86CA866E2D8B850E94601087EA04
:1024500091E00E94F30F86E0F50111928A95E9F769
:102460000E94A0104BCF3513BCCF2413BACFE1107C
:10247000B8CFD80115968C93C8010E94F30F86E05F
:10248000F50111928A95E9F7F92C38CFC816D906CB
:1024900088F1B601681B790BCB01F12C883C9105C2
:1024A00008F047C0FE2CEE2009F45CC0351330C0A4
:1024B00024132EC08091AC0180FD21C0982F907F05
:1024C000F1F0D80115968C931597903F39F0982F1D
:1024D000907F905F8F70892B15968C93C8010E9416
:1024E000F30F86E0F801A7EAB1E001900D928A951A
:1024F000E1F7B6CF809590958C0D9D1DCECF86E0EF
:10250000F801A7EAB1E001900D928A95E1F7F6CEC5
:102510004F8358878F8198850E94351081117FCF16
:102520008091AC0181608093AC01C8010E94F30FDF
:10253000E5CE7C2DDB86CA866E2D8B850E946010D1
:1025400086E0E7EAF1E0DF011D928A95E9F788CF9E
:10255000EE2041F04F8358878F8198850E94351077
:1025600081115DCFC8010E94F30F65CF81E08E25F8
:10257000E5CE1F93CF93DF93CDB7DEB72C970FB681
:10258000F894DEBF0FBECDBF4F83588769877A8727
:102590008B879C87CE0107960E941211882369F0D1
:1025A0008A859B85892B39F04F815885842F852317
:1025B0008F3F09F071C016E05FC086E0FE013796DC
:1025C000DE01119601900D928A95E1F78A859B852F
:1025D000892B89F388859F8189238F3F61F320911F
:1025E000760130E0C9010196877099274091750105
:1025F0004817190671F40E9431101092760110925A
:10260000750186E0E7EAF1E0DF011D928A95E9F7BE
:10261000D2CF96E0929FD001939FB00D1124A9587C
:10262000BE4FFE01319601900D929A95E1F780938D
:1026300076010E947F10BFCF819FC001112489586D
:102640009E4F0E9412118823E9F0E09175011E9FB0
:10265000F0011124E958FE4F40815181628173815C
:10266000848195810E946F108091750190E00196A0
:1026700087709927809375018091750190917601FB
:102680008913DACF2C960FB6F894DEBF0FBECDBFFC
:10269000DF91CF911F91089569857A858B859C85FF
:1026A0000E946F1088CFEF92FF920F931F93CF93EA
:1026B000DF938C01892B89F0F12CEE24E394E8015F
:1026C0002196F8018491843709F457C0A0F4823030
:1026D00009F43EC048F48130D1F0DF91CF911F91D1
:1026E0000F91FF90EF9008959CEF980F9037A8F707
:1026F0000E946B0C0AC0853709F44CC09CE7980F08
:10270000903758F78F770E94470D8E0116C00E5FE5
:102710001F4FFE01849190E2980F983060F487700B
:10272000FE2D01C0FF0F8A95EAF78F2F0E94011737
:102730000E94281702C00E946B0C8F2D815008F454
:10274000BECFEFE9FFE03197F1F700C00000F6CF10
:102750000E5F1F4FFE01849190E2980F983050F465
:102760008770FE2D01C0FF0F8A95EAF78F2F0E9418
:102770000717DECF0E94470DE0CF0E5F1F4FFE010F
:10278000C491C150D0F28FE99FE00197F1F700C0EA
:102790000000F7CF0E5F1F4FFE01F490CECF0895DB
:1027A0006093DE017093DF018093E0019093E1017B
:1027B0000C941D10CF93DF9300D000D0CDB7DEB7BF
:1027C00069837A838B839C838091DE019091DF0102
:1027D000A091E001B091E10129813A814B815C81B6
:1027E000822B932BA42BB52B8093DE019093DF01DA
:1027F000A093E001B093E1010F900F900F900F9024
:10280000DF91CF910C941D10CF93DF9300D000D0B7
:10281000CDB7DEB769837A838B839C838091DE0199
:102820009091DF01A091E001B091E10129813A810D
:102830004B815C8182239323A423B5238093DE0103
:102840009093DF01A093E001B093E1010F900F900E
:102850000F900F90DF91CF910C941D10CF93DF93C9
:1028600000D000D0CDB7DEB769837A838B839C8399
:102870008091DE019091DF01A091E001B091E10132
:1028800029813A814B815C8182279327A427B52730
:102890008093DE019093DF01A093E001B093E1010A
:1028A0000F900F900F900F90DF91CF910C941D100F
:1028B0001092DA011092DB011092DC011092DD011E
:1028C0000C941D1041E050E060E070E004C0440F43
:1028D000551F661F771F8A95D2F74093DA015093F0
:1028E000DB016093DC017093DD010C941D10282F37
:1028F00081E090E0A0E0B0E004C0880F991FAA1F1B
:10290000BB1F2A95D2F74091DA015091DB0160910B
:10291000DC017091DD01842B952BA62BB72B8093C6
:10292000DA019093DB01A093DC01B093DD010C94FC
:102930001D1041E050E060E070E004C0440F551FFE
:10294000661F771F8A95D2F74095509560957095D0
:102950008091DA019091DB01A091DC01B091DD0161
:1029600084239523A623B7238093DA019093DB0178
:10297000A093DC01B093DD010C941D10282F81E0A1
:1029800090E0A0E0B0E004C0880F991FAA1FBB1F11
:102990002A95D2F74091DA015091DB016091DC0178
:1029A0007091DD0184279527A627B7278093DA0148
:1029B0009093DB01A093DC01B093DD010C941D101A
:1029C000CF93DF9300D000D0CDB7DEB769837A8391
:1029D0008B839C838091DA019091DB01A091DC01D3
:1029E000B091DD0129813A814B815C81822B932B4F
:1029F000A42BB52B8093DA019093DB01A093DC012B
:102A0000B093DD010F900F900F900F90DF91CF9159
:102A10000C941D10CF93DF9300D000D0CDB7DEB75C
:102A200069837A838B839C838091DA019091DB01A7
:102A3000A091DC01B091DD0129813A814B815C815B
:102A400082239323A423B5238093DA019093DB019F
:102A5000A093DC01B093DD010F900F900F900F90C9
:102A6000DF91CF910C941D10CF93DF9300D000D055
:102A7000CDB7DEB769837A838B839C838091DA013B
:102A80009091DB01A091DC01B091DD0129813A81B7
:102A90004B815C8182279327A427B5278093DA0195
:102AA0009093DB01A093DC01B093DD010F900F90B8
:102AB0000F900F90DF91CF910C941D100895E82F87
:102AC0002DE0929FE00D11248E2F877041E001C010
:102AD000440F8A95EAF7E695E695E69585E0E89F46
:102AE000F0011124E355FE4F30E020E070E05191F9
:102AF000DF011197CB01022E02C0969587950A94AB
:102B0000E2F7817081958527842385278C932F5F39
:102B10003F4F2530310559F70895E82F2DE0929F5A
:102B2000E00D11249E2F9770E695E695E69585E0D9
:102B3000E89FF0011124E355FE4F50E040E080E0B3
:102B4000219130E0092E02C0369527950A94E2F7CC
:102B500021703327042E01C0220F0A94EAF7822B3A
:102B60004F5F5F4F4530510559F70895BF92CF929F
:102B7000DF92EF92FF920F931F93CF93DF938C011D
:102B8000C090DA01D090DB01E090DC01F090DD0133
:102B90008091DE019091DF01A091E001B091E1010F
:102BA000C82AD92AEA2AFB2ACFE1D0E0BC2ED701D5
:102BB000C6010C2E04C0B695A795979587950A94E3
:102BC000D2F780FD0EC0219788F7B12C8B2DDF91B5
:102BD000CF911F910F91FF90EF90DF90CF90BF901A
:102BE0000895B8018C2F0E94AF07019761F3EECFD3
:102BF000CF93DF93D82FC92F0E94B6156D2F7C2F4E
:102C0000DF91CF910C94AF071F93CF93DF93162FD3
:102C1000D72F90917401992339F0862F972FDF9148
:102C2000CF911F910C94F815882391F0862F972F40
:102C30000E94B615C82F682F812F9D2F0E945F1507
:102C4000612F7D2F8C2FDF91CF911F910C94AF07B7
:102C5000862F972F0E948D15C82FF2CF8091E20109
:102C600085958595859508958091E20187700895F1
:102C700098E0899F90011124622B6093E2010C94EB
:102C800077149091E201809589238093E201282FA7
:102C9000277061F4282F082E000C330B92171306AF
:102CA00029F08595859585950C94991408959091B2
:102CB000E201977081E009F480E00895909112019B
:102CC0009923E1F09091380297FF18C0E82FE6951C
:102CD000E695E695EF3139F120910001309101013F
:102CE000E20FF32FF11D877021E030E001C0220FC9
:102CF0008A95EAF78181822B8183089520910001D2
:102D000030910101F90132969FEF40E05191851712
:102D100051F09F3F19F4511101C0942F4F5F4E3174
:102D2000A9F79F3F09F40895290F311D97FD3A95A2
:102D3000F9018283089590911201992301F19091F4
:102D4000380297FF1CC0E82FE695E695E695EF312F
:102D500039F12091000130910101E20FF32FF11DB3
:102D6000877021E030E0A90102C0440F551F8A9509
:102D7000E2F7CA018095918189238183089520918A
:102D8000000130910101F9013296205E3F4F91918F
:102D9000891303C0DF0111971C92E217F307B9F7FB
:102DA000089581E090E0E0910001F0910101E80FC9
:102DB000F91F1082019680329105A9F7089590912C
:102DC0000602982B909306020895982F9095809173
:102DD0000602892380930602089510920602089540
:102DE00090910502982B909305020895982F909545
:102DF00080910502892380930502089510920502AF
:102E0000089590910402982B909304020895982FAE
:102E10009095809104028923809304020895109272
:102E2000040208958093E30108951092E301089548
:102E30002091000130910101F9013196205E3F4F50
:102E400080E0919191118F5FE217F307D1F7089518
:102E5000E0910001F0910101809106028083E091F0
:102E60000001F0910101808190910502892B8083FE
:102E7000E0910001F0910101808190910402892B81
:102E800080839091E301992361F0E0910001F0913A
:102E900001018081892B80830E9418178111109273
:102EA000E30180910001909101010C94420B6DEEC1
:102EB0007EEF90E080E00E94CF2460E082E090E02E
:102EC0000E94BD2460E083E090E00E94BD2460E0A9
:102ED00084E090E00E94BD2460E085E090E00C94E6
:102EE000BD2490E080E00E94B7249C0181E02D3E4B
:102EF0003E4F09F080E0089582E090E00C94AF240A
:102F0000682F82E090E00C94BD2483E090E00C9464
:102F1000AF24682F83E090E00C94BD2484E090E01F
:102F20000C94AF24682F84E090E00C94BD24809131
:102F30003E02843039F11092080288E190E020E4EA
:102F40000FB6F894A895809360000FBE20936000A0
:102F500080E00E94900783B7817F846083BF83B73E
:102F6000816083BF7894889583B78E7F83BF0FB6C7
:102F7000F894A89580916000886180936000109219
:102F800060000FBE089508950895CF930E94C3175F
:102F90000E945A0A0E94C417C0E08C2F0E94270B7F
:102FA000892B31F4CF5FC530C1F780E0CF91089510
:102FB00081E0FCCF0E9431100E94360B0C949007E8
:102FC0001F921FB61F9211248F939F93AF93BF93AD
:102FD00080910802811113C08091340290913502D2
:102FE000A0913602B09137024196A11DB11D809388
:102FF000340290933502A0933602B0933702BF910A
:10300000AF919F918F911F901FBE1F90189582E0E6
:1030100084BD93E095BD9AEF97BD80936E000895AF
:103020002FB7F8948091340290913502A091360226
:10303000B09137022FBF0895CF92DF92EF92FF92A7
:103040009C014FB7F8948091340290913502A09181
:103050003602B09137024FBF6C017D01EE24FF2490
:10306000A90170E060E0C416D506E606F70638F060
:10307000821B930BFF90EF90DF90CF900895019704
:10308000F7CF1F921FB61F9211248F939F93AF9378
:10309000BF938091340290913502A0913602B09195
:1030A00037020196A11DB11D809334029093350221
:1030B000A0933602B0933702BF91AF919F918F9149
:1030C0001F901FBE1F9018950E945820F8942FEF54
:1030D00087EA91E6215080409040E1F700C000006F
:1030E00087E090EBDC018093470290934802A09325
:1030F0004902B0934A0288E19CE00FB6F894A89583
:10310000809360000FBE90936000FFCFAF92BF929C
:10311000CF92DF92EF92FF920F931F93CF93C0E075
:10312000AA24A394B12CE82EF12C8C2F0E94270BFB
:103130006C0110E000E0C501002E02C0880F991F4D
:103140000A94E2F78C219D21892B99F0602F7C2F26
:1031500080E00E949307E816F90659F481E0CF91C8
:103160001F910F91FF90EF90DF90CF90BF90AF90A5
:1031700008950F5F1F4F0D301105E9F6CF5FC53081
:10318000A1F680E0ECCFCF93C82F8CE20E94861886
:10319000882321F08C2FCF910C94861880E0CF915A
:1031A0000895CF93DF9300D000D0CDB7DEB70E9453
:1031B0007117811102C00E94571795E6998308C0C4
:1031C0000E945A0A8FE39CE90197F1F700C00000C2
:1031D000A981A150A983A111F3CF89E20E94C3184C
:1031E000811110C18AE20E94C31881110E945717F1
:1031F00085E00E94C31881110E9464180E947C1708
:103200008093070287E00E94C318882371F08BE146
:103210000E94C318882309F4D1C090910702892F16
:103220008D7F91FF826080930702809107020E9448
:1032300080170E948E1790E0909339028093380295
:1032400080EE0E94C318882341F090913802892FA4
:103250008E7F90FF81608093380289E30E94C318BB
:10326000882341F090913802892F8D7F91FF8260F1
:103270008093380282EE0E94C318882341F0909117
:103280003802892F8B7F92FF84608093380286EE0C
:103290000E94C318882341F090913802892F877FBC
:1032A00093FF88608093380283EE0E94C3188823BE
:1032B00041F090913802892F8F7E94FF8061809336
:1032C000380285E30E94C318882341F090913802A8
:1032D000892F8F7D95FF80628093380281E30E9461
:1032E000C318882341F090913802892F8F7B96FF75
:1032F00080648093380281E10E94C318882341F0E2
:1033000090913802892F97FB87F980588093380273
:10331000809138020E94921787E20E94C318898325
:103320008EE10E94C318882319F0B981B260B98375
:103330008FE10E94C318882319F029812460298312
:1033400080E20E94C318882319F0398138603983DC
:1033500081E20E94C318882319F0498140614983A2
:1033600082E20E94C318882319F059815062598360
:1033700083E20E94C318882319F0898180648983BD
:1033800084E20E94C3188823B1F1998190689983DF
:1033900089810E9489173981232F30E050E040E075
:1033A00029833A834B835C83CA01B9010F900F9044
:1033B0000F900F90DF91CF910C94D0138EE00E946C
:1033C000C318882339F090910702892F8B7F92FFD1
:1033D000846029CF80E10E94C3189091070288235E
:1033E00029F0892F877F93FF88601DCF892F8E7FDB
:1033F00090FF816018CFA981A111CACF0E948517C3
:10340000282FCBCF0F900F900F900F90DF91CF917F
:10341000089580910B0280FF12C06091050185E044
:10342000689FB0011124759567957595679560380B
:103430007105A8F561157105A1F1862F089581FF29
:1034400009C06091050185E0689FB0011124759560
:103450006795EDCF6091050182FD0AC080910C0255
:103460008823D1F09091040160910501891728F01B
:1034700085E0689FB0011124DACF869FB001112446
:1034800085E0869F9001879F300D1124692F70E0A1
:10349000C9010E948124CBCF65E070E0CECF8FE7D9
:1034A000089581E0089580910B0280FF0CC0609127
:1034B000030170E0759567957595679561157105C0
:1034C00049F1862F089581FF06C06091030170E0E5
:1034D00075956795F3CF6091030182FD0BC09091C4
:1034E0000C029923A1F060910201809103019617CB
:1034F00038F0682F70E06038710500F38FE70895A9
:10350000899FC001112470E00E948124F4CF61E002
:1035100070E0D7CF81E00895803F31F40E94091A0E
:10352000819580930F020895813F19F40E94091A32
:10353000F8CF823F31F40E94091A819580930E02E0
:103540000895833F19F40E94091AF8CF893F29F49E
:103550000E94531A8093100208958A3F21F40E941A
:10356000531A8195F7CF8B3F31F40E94531A8195FE
:103570008093110208958C3F19F40E94531AF8CFDA
:10358000843F31F480910D02816080930D02089593
:10359000853F21F480910D028260F7CF863F21F4B0
:1035A00080910D028460F1CF873F21F480910D025C
:1035B0008860EBCF883F21F480910D028061E5CFD8
:1035C0008D3F31F480910B02816080930B0208954E
:1035D0008E3F21F480910B028260F7CF8F3FB9F7C5
:1035E00080910B028460F1CF90910E02803F41F4F4
:1035F00080910F0287FD10920F02992371F00895B8
:10360000813F29F480910F021816ACF3F6CF823F68
:1036100081F497FFF2CF10920E0280910F029091E9
:103620001002892B90911102892B49F710920C02FC
:103630000895833F19F4191674F3DFCF893F39F4E5
:10364000809110021816CCF610921002D6CF8A3F45
:1036500029F48091100287FFD0CFF6CF8B3F39F449
:103660008091110287FFC9CF10921102C6CF8C3F03
:1036700029F4809111021816BCF3BFCF843F31F4B6
:1036800080910D028E7F80930D02B7CF853F21F48C
:1036900080910D028D7FF7CF863F21F480910D023E
:1036A0008B7FF1CF873F21F480910D02877FEBCF95
:1036B000883F21F480910D028F7EE5CF8D3F31F45C
:1036C00080910B028E7F80930B0297CF8E3F21F467
:1036D00080910B028D7FF7CF8F3F09F08ECF8091C5
:1036E0000B028B7FF0CF8DE092E00E944D0B0E9489
:1036F000101890930A028093090208951F93CF93A4
:10370000DF9300D000D000D0CDB7DEB780910902A2
:1037100090910A020E941C18AC0180910C02209129
:10372000060130E0811106C0209107019AE0299F2F
:10373000900111244217530788F020910E02A091A6
:103740000F02A98310911002B0911102BE832111C2
:103750000FC09A2F912B9B2B09F0B2C026960FB663
:10376000F894DEBF0FBECDBFDF91CF911F910895BA
:103770008F3F19F08F5F80930C02121624F40E9481
:10378000091A80930E0280910E0287FF05C00E94E5
:10379000091A819580930E022981121624F40E9441
:1037A000091A80930F0280910F0287FF05C00E94C3
:1037B000091A819580930F0280910E02882309F4E3
:1037C00055C030910F023D83332309F44FC0282F99
:1037D000880F330B440B550B29833A834B835C834F
:1037E000CA01B9010E94882323E333E343E35FE383
:1037F00069837A838B839C8369817A818B819C81A5
:103800000E94EC2369837A838B839C8369817A810C
:103810008B819C810E94502360930E028D81082E23
:10382000000C990BAA0BBB0B89839A83AB83BC83D7
:10383000BC01CD010E94882323E333E343E35FE32C
:1038400069837A838B839C8369817A818B819C8154
:103850000E94EC2369837A838B839C8369817A81BC
:103860008B819C810E94502360930F02111624F4D7
:103870000E94531A809310028091100287FF05C0A6
:103880000E94531A8195809310029E81191624F488
:103890000E94531A809311028091110287FF05C084
:1038A0000E94531A81958093110226960FB6F894C0
:1038B000DEBF0FBECDBFDF91CF911F910C94731B64
:1038C0008F3F09F057CF68CF85E0EDE0F2E0DF01F0
:1038D0001D928A95E9F710920C0210920B0208953E
:1038E000809132020895CF93DF9300D00F92CDB72D
:1038F000DEB720913E02243019F523E029838A8324
:103900009B832093E9008FEF9091E800815095FD13
:1039100006C095ED9A95F1F700008111F5CF8091E1
:10392000E80085FF0DC050E040E063E070E0CE01AC
:1039300001960E94D01E8091E8008E778093E80067
:103940000F900F900F90DF91CF910895CF93DF9359
:1039500000D00F92CDB7DEB79C0180913E0284303B
:1039600031F582E08983205831093B832A8383E043
:103970008093E9008FEF9091E800815095FD06C09B
:1039800095ED9A95F1F700008111F5CF8091E8004F
:1039900085FF0DC050E040E063E070E0CE0101968D
:1039A0000E94D01E8091E8008E778093E8000F90EF
:1039B0000F900F90DF91CF91089520913E02243017
:1039C000F1F422E02093E9002FEF3091E80021503C
:1039D00035FD06C035ED3A95F1F700002111F5CF20
:1039E0002091E80025FF0BC050E040E065E070E06A
:1039F0000E94D01E8091E8008E778093E8000895A1
:103A0000CF93DF93D82FC92F80913E028430F1F4F9
:103A1000909112019923E9F09091380297FF19C013
:103A20008093E9008FEF9091E800815095FD06C0EA
:103A300095E19A95F1F700008111F5CF8091E800AA
:103A400050E040E060E270E085FD1AC0DF91CF9168
:103A5000089581E08093E9008FEF9091E800815014
:103A600095FD06C095ED9A95F1F700008111F5CF0F
:103A70008091E80085FFEACF50E040E068E070E028
:103A80008D2F9C2F0E94D01E8091E8008E7780930E
:103A9000E80080E2ED2FFC2FA2E1B2E001900D9250
:103AA0008A95E1F7D3CF80913D02811109C00E9430
:103AB00058200E94B5208091E20084608093E2004B
:103AC000089510923D020895089508950C94DA1710
:103AD00042E061EC81E00E94D41F42E061EC82E0B0
:103AE0000E94D41F42E061EC83E00E94D41F42E2B6
:103AF00061EC84E00C94D41F80914002893089F1FC
:103B000048F4823009F494C0833009F44FC0813006
:103B100041F008958A3009F47BC08B3009F461C00C
:103B2000089580913F02813A09F03FC08091E800FA
:103B3000877F8093E8008091430290914402892B13
:103B400061F460E282E192E070E00E941F1F8091C8
:103B5000E8008B778093E800089560E090E080E0D3
:103B6000F3CF80913F02813201F580914302909121
:103B70004402009711F00397C1F48091E800877F19
:103B80008093E8008091E80082FF0BC08091F100F3
:103B9000809332028091E8008B778093E8000C9448
:103BA000082080913E028111EDCF089580913F025F
:103BB000813AD9F78091430290914402892BA9F769
:103BC0008091E800877F8093E8008091E80080FF83
:103BD000FCCF809112018093F1008091E8008E77F4
:103BE000DCCF80913F02813201F7809143029091B6
:103BF0004402892BD1F68091E800877F8093E8000A
:103C00000E94082080914102809312010C9431108F
:103C100080913F02813249F68091E800877F80934E
:103C2000E8000E94082080914202809333020895A8
:103C300080913F02813A09F0B8CF8091E800877FF8
:103C40008093E8008091E80080FFFCCF80913302F0
:103C5000C2CF84B7877F84BF0FB6F894A8958091B0
:103C60006000886180936000109260000FBE80E861
:103C700080936100109261000E94850B0E94582081
:103C80000E94B5208091E20084608093E2007894E5
:103C90000E9435230E94870B88E091E00E94310B3F
:103CA00080913E02853019F00E948D0BF9CF0E9461
:103CB000971780913C02882399F30E94C5178823A7
:103CC00079F30E94BA1EECCF9C01DA01892F992763
:103CD00083309105C1F068F48130910509F445C045
:103CE000029761F48DE690E02BEA39E02D933C9346
:103CF000089581329105E1F0829739F190E080E0FA
:103D000030E020E0F3CFC9019927213059F082300B
:103D1000910559F0E7EAF9E0892B81F7849190E069
:103D20009F01E4CFEFE8F9E0F9CFEBE7F9E0F6CF58
:103D3000643020F7E62FF0E0EE0FFF1FEF5CFE4F40
:103D40002081318189E090E0D1CF6430B8F670E015
:103D5000FB01EE0FFF1FE75DFE4F208131816B5DA0
:103D60007E4FFB01808190E0C1CF82E190E028E1AD
:103D70003AE0BCCF80E189BD82E189BD09B400FE93
:103D8000FDCF8091D8008F7D8093D8008091E00096
:103D900082608093E0008091E00081FDFCCF089577
:103DA000AF92BF92CF92DF92FF920F931F93CF9368
:103DB000DF936C01EB018A010E942720F82E81110C
:103DC00023C00115110539F0F80180819181C81BCC
:103DD000D90BC80ED91EB12CA12C2097A9F0809127
:103DE000E80085FD22C08091E8008E778093E8008E
:103DF00001151105A1F0F80180819181A80EB91E6D
:103E0000B182A08285E0F82E8F2DDF91CF911F9196
:103E10000F91FF90DF90CF90BF90AF9008950E94D8
:103E200027208823D1F2F82EEFCFF60181916F0180
:103E30008093F1002197FFEFAF1ABF0ACECFFC01AC
:103E4000CB0120914502309146022617370790F0AA
:103E5000009729F42091E8002E772093E80040E0B5
:103E6000009751F4411108C08091E80082FF31C0F1
:103E700080E00895C901F3CF20913E022223A9F1E9
:103E80002530A9F12091E80023FD2DC02091E80004
:103E900022FDEACF2091E80020FFE2CF3091F3002D
:103EA0002091F200009719F02830310558F041E0D8
:103EB0002830310509F040E02091E8002E7720936A
:103EC000E800CECF41914093F10001972F5F3F4F23
:103ED000E9CF80913E02882341F0853041F0809106
:103EE000E80083FFC1CF81E0089582E0089583E078
:103EF0000895FC01CB01209145023091460226171E
:103F0000370790F0009729F42091E8002E7720934E
:103F1000E80040E0009751F4411108C08091E800AA
:103F200082FF32C080E00895C901F3CF20913E02A4
:103F30002223B1F12530B1F12091E80023FD2EC0FC
:103F40002091E80022FDEACF2091E80020FFE2CF97
:103F50003091F3002091F200009719F028303105DC
:103F600058F041E02830310509F040E02091E800A8
:103F70002E772093E800CECF44914093F100319604
:103F800001972F5F3F4FE8CF80913E02882341F099
:103F9000853041F08091E80083FFC0CF81E0089533
:103FA00082E0089583E00895982F973028F08F706D
:103FB0008093E90081E008959093E900242F762F03
:103FC00050E0981731F07091EC002091ED00509185
:103FD000F00021FD02C09F5FE8CF3091EB003E7FF3
:103FE0003093EB003091ED003D7F3093ED00309148
:103FF000EB0031603093EB007093EC002093ED0008
:104000005093F0002091EE0027FDE5CF80E0089569
:1040100080913F0287FF13C08091E80082FF06C0B5
:104020008091E8008B778093E80004C080913E0285
:104030008111F2CF089580913E028823D9F38091B7
:10404000E80080FFF8CF8091E8008E77ECCF2091D8
:10405000E4003091E50095E6A9012091EC00822F63
:10406000817020FF06C08091E80080FF06C080E0DC
:1040700008952091E80022FD1AC080913E02882315
:1040800089F0853089F08091EB0085FD0FC020918B
:10409000E4003091E50042175307F9F29150E1F640
:1040A00084E0089582E0089583E0089581E0089512
:1040B0000E94C6200E94CE20E0EEF0E08081816068
:1040C0008083E8EDF0E080818F77808319BCA7EDD5
:1040D000B0E08C918E7F8C9380818F7E8083109254
:1040E0003D0208950F931F93CF93DF930E94C62044
:1040F0000E94CE20C8EDD0E088818F7788838881A8
:104100008068888388818F7D888319BC10923E02E5
:1041100010923A0210923C0210923B0200EE10E024
:10412000F80180818B7F808388818160888342E071
:1041300060E080E00E94D41FE1EEF0E080818E7F9D
:104140008083E2EEF0E080818160808380818860FE
:104150008083F80180818E7F80838881806188835D
:10416000DF91CF911F910F910895E8EDF0E08081EC
:104170008F7E8083E7EDF0E080818160808384E042
:1041800082BF81E080933D020C947220E8EDF0E064
:1041900080818E7F80831092E20008951092DA0071
:1041A0001092E10008951F920F920FB60F92112402
:1041B0002F933F934F935F936F937F938F939F932F
:1041C000AF93BF93EF93FF938091E10082FF0BC009
:1041D0008091E20082FF07C08091E1008B7F809395
:1041E000E1000E9434238091DA0080FF19C08091A1
:1041F000D80080FF15C08091DA008E7F8093DA00AE
:104200008091D90080FF94C080E189BD82E189BDA1
:1042100009B400FEFDCF81E080933E020E94531D51
:104220008091E10080FF19C08091E20080FF15C0FD
:104230008091E2008E7F8093E2008091E2008061B5
:104240008093E2008091D80080628093D80019BCEE
:1042500085E080933E020E94651D8091E10084FF0D
:1042600029C08091E20084FF25C080E189BD82E100
:1042700089BD09B400FEFDCF8091D8008F7D809369
:10428000D8008091E1008F7E8093E1008091E20070
:104290008F7E8093E2008091E20081608093E20053
:1042A00080913A02882309F449C084E080933E0259
:1042B0000E94661D8091E10083FF29C08091E20089
:1042C00083FF25C08091E100877F8093E10082E039
:1042D00080933E0210923A028091E1008E7F80939B
:1042E000E1008091E2008E7F8093E2008091E20005
:1042F00080618093E20042E060E080E00E94D41F91
:104300008091F00088608093F0000E94641DFF910E
:10431000EF91BF91AF919F918F917F916F915F913D
:104320004F913F912F910F900FBE0F901F901895B6
:1043300019BC10923E020E94611D72CF8091E30071
:1043400087FD02C081E0B2CF83E0B0CF1F920F9211
:104350000FB60F9211242F933F934F935F936F9358
:104360007F938F939F93AF93BF93CF93DF93EF93FD
:10437000FF93D091E900DF708091EC00C82FC170ED
:1043800080FDC0E81092E9008091F000877F809363
:10439000F00078940E94EA211092E9008091F000E8
:1043A00088608093F000CD2BCF70C093E900FF911F
:1043B000EF91DF91CF91BF91AF919F918F917F91BD
:1043C0006F915F914F913F912F910F900FBE0F9082
:1043D0001F9018951F93CF93DF93CDB7DEB7AA97A1
:1043E0000FB6F894DEBF0FBECDBF8FE392E0FC01A5
:1043F00001962091F100208322E087349207B9F7DB
:104400000E947C1D8091E80083FF16C180913F02CD
:10441000909140029A3008F00FC1E92FF0E0E85E79
:10442000FA4D0C949524803881F0823809F004C14B
:10443000809143028F708093E9008091EB0085FBAF
:10444000882780F91092E90006C080913B02909184
:104450003C02911182609091E800977F9093E80070
:104460008093F1001092F1008091E8008E77E0C017
:10447000882309F4CEC0823009F0DEC08091410269
:104480008111D1C0809143028F7009F4D5C080930F
:10449000E9002091EB0020FFC6C0933031F48091F9
:1044A000EB0080628093EB00BEC09091EB009061C6
:1044B0009093EB0021E030E001C0220F8A95EAF7EB
:1044C0002093EA001092EA008091EB008860EACF26
:1044D0008111B2C0109141021F778091E300807872
:1044E000812B8093E3008091E800877F8093E80030
:1044F0000E9408208091E80080FFFCCF8091E300BB
:1045000080688093E30082E0111183E080933E0293
:1045100093C08058823008F08FC080914102909102
:1045200042028C3D23E09207A1F583E08A838AE270
:1045300089834FB7F894DE01139620E03EE051E204
:10454000E32FF0E050935700E49120FF03C0E29581
:10455000EF703F5FEF708E2F90E0EA30C0F0C796AB
:104560008D939D932F5F243159F74FBF8091E800C1
:10457000877F8093E8006AE270E0CE0101960E9496
:104580001F1F8091E8008B778093E80055C0C0968C
:10459000E7CFAE014F5F5F4F609143020E94641E00
:1045A000BC01892B09F448C08091E800877F809383
:1045B000E80089819A810E94791FE3CF8038E1F574
:1045C0008091E800877F8093E80080913A02809391
:1045D000F1004ACF811130C090914102923060F5D4
:1045E0008091E800877F8093E80090933A020E94D0
:1045F000082080913A02882311F084E005C0809160
:10460000E30087FDFACF81E080933E020E94681D9F
:1046100013C080914102813079F481E0933009F038
:1046200080E080933C021092E9008091E800877F4F
:104630008093E8000E9408208091E80083FF0AC070
:104640008091E800877F8093E8008091EB00806292
:104650008093EB00AA960FB6F894DEBF0FBECDBFD5
:10466000DF91CF911F9108950895CF9380913E02DD
:104670008823A1F0C091E900CF709091EC00892FC0
:10468000817090FD80E8C82B1092E9008091E800CD
:1046900083FD0E94EA21CF70C093E900CF91089575
:1046A0000E9457236894B1110C94E62308950E9448
:1046B000CB2388F09F5798F0B92F9927B751B0F0C6
:1046C000E1F0660F771F881F991F1AF0BA95C9F796
:1046D00014C0B13091F00E94E523B1E008950C942C
:1046E000E523672F782F8827B85F39F0B93FCCF3DF
:1046F000869577956795B395D9F73EF49095809513
:10470000709561957F4F8F4F9F4F0895E89409C032
:1047100097FB3EF490958095709561957F4F8F4FF4
:104720009F4F9923A9F0F92F96E9BB279395F6950A
:10473000879577956795B795F111F8CFFAF4BB0F88
:1047400011F460FF1BC06F5F7F4F8F4F9F4F16C0EC
:10475000882311F096E911C0772321F09EE8872F76
:10476000762F05C0662371F096E8862F70E060E032
:104770002AF09A95660F771F881FDAF7880F9695AB
:10478000879597F9089557FD9058440F551F59F094
:104790005F3F71F04795880F97FB991F61F09F3F2E
:1047A00079F087950895121613061406551FF2CF57
:1047B0004695F1DF08C0161617061806991FF1CFA7
:1047C00086957105610508940895E894BB276627CE
:1047D0007727CB0197F908950E94FF230C9470244A
:1047E0000E94622438F00E94692420F0952311F081
:1047F0000C9459240C945F2411240C94E6230E94F9
:10480000C32370F3959FC1F3950F50E0551F629F2E
:10481000F001729FBB27F00DB11D639FAA27F00D19
:10482000B11DAA1F649F6627B00DA11D661F829F40
:104830002227B00DA11D621F739FB00DA11D621F25
:10484000839FA00D611D221F749F3327A00D611D42
:10485000231F849F600D211D822F762F6A2F112424
:104860009F5750409AF0F1F088234AF0EE0FFF1F57
:10487000BB1F661F771F881F91505040A9F79E3FAE
:10488000510580F00C9459240C94E6235F3FE4F327
:10489000983ED4F3869577956795B795F795E79504
:1048A0009F5FC1F7FE2B880F911D9695879597F90D
:1048B000089597F99F6780E870E060E008959FEFA2
:1048C00080EC089500240A941616170618060906A7
:1048D000089500240A941216130614060506089576
:1048E000092E0394000C11F4882352F0BB0F40F4FE
:1048F000BF2B11F460FF04C06F5F7F4F8F4F9F4F3E
:10490000089597FB072E16F4009407D077FD09D081
:104910000E949B2407FC05D03EF4909581959F4F03
:104920000895709561957F4F0895EE0FFF1F0590D4
:10493000F491E02D0994AA1BBB1B51E107C0AA1FEB
:10494000BB1FA617B70710F0A61BB70B881F991F30
:104950005A95A9F780959095BC01CD010895F999D4
:10496000FECF92BD81BDF89A992780B50895A8E140
:10497000B0E042E050E00C94D724262FF999FECF06
:1049800092BD81BDF89A019700B4021639F01FBAA2
:1049900020BD0FB6F894FA9AF99A0FBE08950196C1
:1049A000272F0E94BE240C94BD24DC01CB01FC0106
:1049B000F999FECF06C0F2BDE1BDF89A319600B478
:1049C0000D9241505040B8F70895F894FFCFE80594
:1049D000EE05F405FA05FF05040609060E061306A2
:1049E00018061D06220627062C063106FB060707B9
:1049F0000B070F07130717071B071F0723072707B7
:104A00002B072F07330737073B073F0743074707A6
:104A1000DC0DDC0D340E340E780E940E0C0E0C0EE4
:104A20009F0E0C0E670F670FD20F0C0E0C0EDB0FD4
:104A3000132238221C2338221C23682289221C239B
:044A4000DE22EA2266
:104A4400E4012808140A321E701C001DDD1CA61C7B
:104A5400731C01F033379594969734353666F7F620
:104A64009293C6F4F5404D3639E60A990A630A2A48
:0A4A74000ABD09D609EF09080A007F
:00000001FF
